:100000000A128A11FC2F00308A000408840A820731
:1000100000347034723465347334733420343434BF
:100020002034663469347234733474342034523476
:100030006534763465347234733465342034323444
:1000400020346E34643420340034703472346534B7
:100050007334733420343134203466346F34723462
:1000600077346134723464340034703472346534FB
:10007000733473342034323420345234653476345B
:1000800065347234733465340034703472346534DA
:10009000733473342034333420345234653476343A
:1000A00065347234733465340034703472346534BA
:1000B00073347334203438342034733474346F34EC
:0400C0007034003464
:100D1000F300730884000A128A1103200A128A1150
:100D2000003A03190800730884000A128A1103208C
:100D30000A128A110A128A11C7260A128A11013070
:100D4000F2007208F307892E02300A128A110F2767
:100D50000A128A1128300A128A110F270A128A11E0
:100D60000C300A128A110F270A128A1106300A1251
:100D70008A110F270A128A1101300A128A110F27CD
:100D80000A128A1180300A128A110F270800F10016
:100D90007108F0398312031388000814FD30F00045
:100DA000700888050815F930F000D62EF00BD52E06
:100DB000D92EDA2EFB30F000700883120313880559
:100DC000F930F000E32EF00BE22EE62EE72E71084C
:100DD000F00003300310F00DFF3E031DEA2E031058
:100DE000700D8312031388000814FD30F0007008A2
:100DF00088050815F930F000FD2EF00BFC2E002FB1
:100E0000012FFB30F0007008831203138805F930BE
:100E1000F0000A2FF00B092F0D2F0E2F0800F10004
:100E20007108F039831203138800FE30F000700857
:100E30008805FD30F000700888050815F930F000CD
:100E4000212FF00B202F242F252FFB30F0007008CE
:100E5000831203138805F930F0002E2FF00B2D2F8D
:100E6000312F322F7108F00003300310F00DFF3ED8
:100E7000031D352F0310700D831203138800FE30FD
:100E8000F00070088805FD30F0007008880508152E
:100E9000F930F0004B2FF00B4A2F4E2F4F2FFB3025
:100EA000F0007008831203138805F930F000582F02
:100EB000F00B572F5B2F5C2F0800F401F501831610
:100EC000031388018701FF3086000A128A11A426C5
:100ED0000A128A1161300A128A11C7260A128A116F
:100EE00083120313861D7C2F0130F4070318F50AC3
:100EF0000030F50786197A2F74037504031D8E2FB1
:100F00000530870080300A128A110F270A128A11D1
:100F10001D300A128A1188260A128A1102307406BC
:100F20007504031DA92F0A308312031387000130B3
:100F30000A128A110F270A128A1180300A128A11A6
:100F40000F270A128A112D300A128A1188260A12D6
:100F50008A11033074067504031DC42F09308312EF
:100F60000313870001300A128A110F270A128A110F
:100F700080300A128A110F270A128A113D300A1294
:100F80008A1188260A128A11043074067504031D1A
:100F9000DF2F063083120313870001300A128A11F3
:100FA0000F270A128A1180300A128A110F270A129B
:100FB0008A1101300A128A1188260A128A11053014
:100FC00074067504031D702F83120313870101300B
:100FD0000A128A110F270A128A1180300A128A1106
:100FE0000F270A128A114D300A128A1188260A1216
:100FF0008A11F401F501702F83010A128A115D2F05
:00000001FF
